:020000040800F2
:10000000F80400200101000823120008351100083F
:10001000211200086D010008FD1500080000000015
:10002000000000000000000000000000271200088F
:100030006F010008000000002512000829120008C6
:100040001B0100081B0100081B0100081B01000820
:100050001B0100081B0100081B0100081B01000810
:100060001B0100081B0100081B0100081B01000800
:100070001B0100081B0100081B0100081B010008F0
:100080001B0100081B0100081B0100081B010008E0
:100090001B0100081B0100081B0100081B010008D0
:1000A0001B0100081B0100081B0100081B010008C0
:1000B0001B0100081B010008CD1200081B010008ED
:1000C0001B0100081B0100081B0100081B010008A0
:1000D0001B0100081B010008F11500081B010008A6
:1000E0001B0100081B0100081B010008DFF80CD0F1
:1000F00000F02AF8004800473D160008F8040020E8
:100100000648804706480047FEE7FEE7FEE7FEE7B1
:10011000FEE7FEE7FEE7FEE7FEE7FEE785120008E2
:10012000ED000008D2B201E000F8012B491EFBD21D
:1001300070470022F6E710B513460A4604461946F2
:10014000FFF7F0FF204610BD064C074D06E0E068C3
:1001500040F0010394E8070098471034AC42F6D30E
:10016000FFF7C8FF3417000854170008FEE7704770
:1001700010B590F821100024022903D004218163D6
:1001800001243DE001680A6822F00E020A6001685D
:100190000A6822F001020A601A4A0168914201D1FC
:1001A000012121E0174A1432914201D110211BE0B4
:1001B000144A2832914201D1891515E0114A3C3286
:1001C000914201D189140FE00E4A5032914202D17E
:1001D0004FF4803108E00B4A6432914202D14FF46F
:1001E000801101E04FF08071064A083A5160012108
:1001F00080F82110002180F82010416B01B1884760
:10020000204610BD080002402DE9F84FDFF8B891F4
:10021000002409F1040A0AF1040B23460F270BF10D
:10022000040EC9E00125A5402A40AA427DD1674EAF
:10023000D1F804C0ACEB0608B44532D014DCBCF1F4
:10024000030F3AD009DCBCF1000F2AD0BCF1010F3A
:100250001CD0BCF1020F31D11DE0BCF1110F17D041
:10026000BCF1120F2AD119E0B8F5881F19D006DCAD
:10027000B8F5803F15D0B8F5801F1FD111E0B8F553
:10028000001F0ED0B8F5041F18D10AE0CB6815E0A6
:10029000CB681B1D12E0CB6808330FE0CB680C3332
:1002A0000CE08B682BB1012B4FF0080303D04561A4
:1002B00004E0042302E0056100E00023FF2A01D8E6
:1002C000064601E000F104064FEA840501D9A5F1D4
:1002D0002005D6F8008007FA05FC28EA0C0803FA86
:1002E00005F548EA0508C6F800804D68ED0062D5BE
:1002F000374DAE6946F00106AE61AD6924F00306E4
:1003000005F001050095334D06EB050CDCF80850AF
:10031000A607360F07FA06F825EA0805DFF8B880C1
:10032000404503D14FF0000817E044E0DFF8AC800F
:10033000404502D14FF001080FE0DFF8A4804045AE
:1003400002D14FF0020808E0DFF89880404502D162
:100350004FF0030801E04FF0040808FA06F848EAF5
:100360000508CCF808804D68D9F80060ED034D46CB
:1003700001D5164300E096432E604D68DAF8006020
:10038000AD03554601D5164300E096432E604D68F7
:10039000DBF80060ED025D4601D5164300E09643B0
:1003A0002E604D68DEF80060AD02754601D516433B
:1003B00000E096432E60641C0D682A46E5407FF4F9
:1003C00031AFBDE8F88F00000004014000001110BB
:1003D000001002400000014000080140000C0140F4
:1003E00000100140001401408068084000D0012046
:1003F00070470AB1016170470904FBE70148806852
:10040000704700006000002070B5040011D0216822
:100410004CF6CC400860216845F255500860D4E99C
:10042000000141602168A0688860FFF7E7FF05468A
:1004300009E0012070BD00BFFFF7E0FF401B30283E
:1004400001D9032070BD2068C0680028F4D121685C
:100450004AF6AA200860002070BD00684AF6AA216A
:100460000160002070470000024881680278114452
:100470008160704760000020074810B5016841F0B6
:1004800010010160032000F075F8002000F006F86C
:1004900000F024F8002010BD0020024070B50D4D82
:1004A00004464FF47A712878B1FBF0F00A490968E4
:1004B000B1FBF0F000F0ECFA48B9102C07D20022A2
:1004C0002146501E00F036F800206C6070BD0120FF
:1004D00070BD0000600000205C0000200C4808B5E2
:1004E000816941F001018161816901F0010100919F
:1004F000C16941F08051C161C06900F08050009035
:100500000448416821F0E06141F00071416008BD9C
:100510000010024000000140002809DB00F01F022B
:10052000012191404009800000F1E020C0F8001155
:1005300070470000F0B40E4B1B680C46C3F3022357
:10054000C3F10705042D00D90425191D072901D27F
:10055000002300E0DB1E012606FA05F1491E2140BA
:1005600099409E40761E16403143F0BC01F047B8DA
:100570000CED00E0064900F0070208684FF6FF03A3
:10058000184040EA0220034A104308607047000008
:100590000CED00E00000FA052DE9F0470F460500DC
:1005A00061D0434E306800F00700B84209D230688D
:1005B00020F0070038433060306800F00700B84290
:1005C00051D128683B4C810712D5400703D560689C
:1005D00040F4E06060602878000703D5606840F46C
:1005E000605060606068A96820F0F00008436060B7
:1005F0002878C00728D06868012810D02168022810
:1006000010D0890700292EDA616821F00301014327
:100610006160FFF7F3FE804641F288390DE0216802
:100620008903EFE78901EDE7FFF7E8FEA0EB08019A
:10063000494502D90320BDE8F0876068696800F089
:100640000C00B0EB810FEFD1306800F00700B8422A
:100650000BD9306820F0070038433060306800F074
:100660000700B84201D00120E5E72878400705D50A
:100670006068E96820F4E06008436060287800075B
:1006800006D56068296920F4605040EAC1006060C6
:1006900000F038F86168084AC1F30311515CC840A2
:1006A0000649086006480068FFF7F8FE0020C2E728
:1006B00000200240001002401C1700085C000020CF
:1006C000640000200448054900684968044AC1F3F1
:1006D0000221515CC84070475C00002000100240BD
:1006E0002C1700080448054900684968044AC1F30A
:1006F000C221515CC84070475C00002000100240DD
:100700002C17000812A185B00FC98DE80F0014A0A6
:10071000144A006804905168134801F00C03042B3C
:1007200010D0082B0ED1C1F38343C9031DF8030079
:100730000AD5516804AAC1F34041515C0A4A5043AA
:10074000B0FBF1F005B0704708494843FAE70000F4
:1007500002030405060708090A0B0C0D0E0F101002
:10076000010200000010024000127A0000093D0062
:100770002DE9F84F040070D02078C04DC00749D053
:100780006868C0F38100012807D06868C0F3810061
:10079000022809D16868C00306D52868800339D5C6
:1007A00060680028E7D035E06068B0F5803F0BD086
:1007B00010B1B0F5A02F11D0286820F48030286047
:1007C000286820F4802002E0286840F48030286007
:1007D000606890B1FFF712FE06460AE0286840F410
:1007E00080202860F0E700BFFFF708FE801B642828
:1007F00073D828688003F7D50CE0FFF7FFFD0646A5
:1008000005E000BFFFF7FAFD801B6428F0D82868D8
:100810008003F7D420789A4E80074FF001094FF0FB
:10082000000839D5686810F00C0F07D06868C0F36D
:100830008100022809D16868C00306D428688007AF
:1008400014D52069012808D110E02069B0B1C6F89C
:100850000090FFF7D3FD074605E00AE1FFF7CEFD64
:10086000C01B0228C4D828688007F7D528686169AA
:1008700020F0F80040EAC10028600DE0C6F80080D2
:10088000FFF7BCFD074604E0FFF7B8FDC01B0228D8
:1008900023D828688007F7D4207800072CD579481A
:1008A000A169D9B1C0F80090FFF7A8FD074604E0A0
:1008B000FFF7A4FDC01B02280FD8686A8007F7D590
:1008C00071484FF4FA510068B0FBF1F0009000BF9E
:1008D0000098411E0091FAD20EE080E0C0F800803E
:1008E000FFF78CFD074604E0FFF788FDC01B0228D8
:1008F00075D8686A8007F7D42078400760D5E86922
:100900000027C00008D4E86940F08050E861E86939
:10091000012700F0805000905C480168C90513D49D
:100920000168834641F480710160FFF767FD8246EC
:1009300006E000BFFFF762FDA0EB0A0064284ED876
:10094000DBF80000C005F5D5E06801280AD008B141
:10095000052813D0286A20F001002862286A20F0B8
:10096000040002E0286A40F001002862E06841F2D9
:10097000883B98B1FFF742FD82460BE0286A40F0C1
:1009800004002862EEE700BFFFF738FDA0EB0A0184
:1009900059455AD8286A8007F6D50CE0FFF72EFD96
:1009A000824605E0FFF72AFDA0EB0A0159454CD825
:1009B000286A8007F6D41FB1E86920F08050E8610A
:1009C000E06988B36968C1F38101022944D0022833
:1009D000C6F8608004D0FFF711FD044638E034E02B
:1009E000FFF70CFD074604E0FFF708FDC01B0228D7
:1009F0002BD828688001F7D4206AB0F5803F05D154
:100A00006868A16820F4003008436860D4E90801F0
:100A10000843696821F4741108436860C6F860905F
:100A2000FFF7ECFC044606E025E000BFFFF7E6FC1C
:100A3000001B022809D828688001F7D51BE000BFF9
:100A4000FFF7DCFC001B022802D90320BDE8F88F69
:100A500028688001F4D40EE00128F7D06868226A83
:100A600000F48031914204D1616A00F47010884230
:100A700001D00120EAE70020E8E700000010024072
:100A800000004242800442425C00002000700040AE
:100A900010B5401EB0F1807F01D3012010BD4FF092
:100AA000E02460610F21601700F0A9FD0020A06123
:100AB00007202061002010BD7047704770B590F886
:100AC0003C20012A19D0012400F83C4F0222427038
:100AD00050F83C3C5A689D6822F070060A684968E4
:100AE000324325F0800529435A6050F83C2C916030
:100AF000447000210170084670BD022070BD10B521
:100B0000040003D094F83D0010B107E0012010BDAF
:100B1000002084F83C00204600F00CF8022084F805
:100B20003D00211D206800F0D7FB012084F83D0026
:100B3000002010BD08B500680B49884212D10B484F
:100B4000C16941F00401C161C069002200F00400E4
:100B5000009011461E20FFF7EDFCBDE808401E2066
:100B6000FFF7DABC08BD000000080040001002409A
:100B70000168CA6842F00102CA600068816801F039
:100B80000701062903D0016841F00101016000203E
:100B9000704770B5044690F83C00012817D0012535
:100BA00084F83C50022084F83D002068826822F0DE
:100BB000770222F47F4282600868502830D00DDC32
:100BC00020284DD005DC98B310283BD148E0022006
:100BD00070BD302844D0402834D139E0602828D076
:100BE000702806D0B0F5805F2CD0B0F5005F29D119
:100BF0000AE0CB68D1E90121206800F0A3FB20685E
:100C0000816841F0770109E0CB68D1E901212068D2
:100C100000F098FB2068816841F48041816011E018
:100C2000CA684968206800F09FFB5021206807E0EF
:100C300016E0CA684968206800F0A7FB60212068B8
:100C400000F08AFB84F83D50002084F83C0070BD21
:100C5000CA684968206800F087FB40212068EFE7F8
:100C6000226801461046EBE7704770B504460068FD
:100C700001694FF00005C943890715D4C168C9430C
:100C8000890711D4E91E016101202077206880695D
:100C90008007204602D0FFF7E7FF04E000F098F855
:100CA000204600F096F8257720680169C943490776
:100CB00017D4C168C943490713D46FF00401016117
:100CC000022020772068806910F4407F204602D0FF
:100CD000FFF7CAFF04E000F07BF8204600F079F847
:100CE000257720680169C943090716D4C168C9433B
:100CF000090712D46FF008010161042020772068F1
:100D0000C0698007204602D0FFF7AEFF04E000F084
:100D10005FF8204600F05DF8257720680169C94337
:100D2000C90617D4C168C943C90613D46FF01001AE
:100D30000161082020772068C06910F4407F2046B8
:100D400002D0FFF791FF04E000F042F8204600F0E7
:100D500040F8257720680169C943C90708D1C168EF
:100D6000C943C90704D1891E0161204600F032F849
:100D700020680169C943090609D4C168C943090645
:100D800005D46FF0800101612046FFF795FE2068D1
:100D90000169C943490609D4C168C943490605D454
:100DA0006FF040010161204600F02AF820680169D7
:100DB000C94389060BD4C168C943890607D46FF0BB
:100DC000200101612046BDE87040FFF776BE70BD8E
:100DD00070477047084988420CD108496422C868A6
:100DE000401C90FBF2F3C86002FB1300002801D105
:100DF000012088607047000078000020000000207B
:100E00007047704770B5026804461068D16853692E
:100E100010F00F0F50D003F0010501F49076354328
:100E20005DD0C20705D0CA0503D5E26B42F00102CE
:100E3000E263420705D5DA0703D0E26B42F0020213
:100E4000E263820705D5DA0703D0E26B42F00402C1
:100E5000E263020705D5DA0703D0E26B42F008022D
:100E6000E263E26B002A33D0800604D5880602D5FF
:100E7000204600F0B2FA20684069E16BC0F38010B0
:100E8000090700D428B3204600F099FA2068416988
:100E900049061AD5416921F040014161606BA0B15A
:100EA0001B494163606BFFF763F9002810D0606B4A
:100EB000416BBDE870400847830610D58B060ED500
:100EC0002046BDE8704000F088BA2046FFF799FF41
:100ED00070BD2046FFF795FF0020E06370BD03065C
:100EE00006D50B0604D52046BDE8704000F01CBBBB
:100EF0004006F3D54806F1D5D168204621F04001DF
:100F0000D160202184F8391000F013F970BD000081
:100F1000AF13000870B5040004D094F83900002520
:100F200010B106E0012070BD84F83850204600F072
:100F300023F8242084F839002068C16821F4005186
:100F4000C160204600F094FA2068016921F49041C4
:100F500001612068416921F02A0141612068C1686E
:100F600041F40051C160E563202084F8390084F821
:100F70003A00002070BD000000B585B0002100914E
:100F800001910291039100681349884221D11348CD
:100F9000C16941F40031C161C16901F400310491BA
:100FA000816941F0040181618069694600F00400B3
:100FB00004900C2000900220019003900848FFF755
:100FC00023F9002211462620FFF7B4FA2620FFF766
:100FD000A3FA05B000BD000000440040001002402C
:100FE0000008014090F83A30202B22D1F9B1F2B13B
:100FF00090F83830012B1CD081628285C285002197
:10100000C163222280F83A2080F838100168CA684B
:1010100042F48072CA6001684A6942F001024A6182
:101020000068C16841F02001C160002070470120C4
:1010300070470220704700000D49884216D10D48C4
:1010400001784C290BD14178452908D18078442872
:1010500005D108484168012906D0012141600322D9
:1010600004490348FFF7BEBF0021F7E770470000BF
:10107000B8000020000000202DE9F843044690F855
:1010800039001F4616460D46202850D1A5B19EB105
:1010900094F8380001284AD0012084F838004FF035
:1010A0000008C4F83C80212084F83900FFF7A6F935
:1010B000A6848146E68426E00120BDE8F883E08C22
:1010C000401EE084A0684B46B0F5805F4FF0000200
:1010D0004FF080012046009703D000F056FAE8B99F
:1010E0000DE000F052FAC8B928882168C0F3080062
:1010F0004860206908B16D1C05E0AD1C03E0216863
:1011000015F8010B4860E08C0028D8D14B4600222E
:1011100040212046009700F038FA08B10320CCE7C0
:10112000202084F8390084F838800020C5E70220A8
:10113000C3E77047FEE7000030B585B000242048C3
:101140000094019402940394816941F0100181613B
:10115000816901F010010491816941F020018161F0
:10116000816901F020010491816941F004018161EC
:10117000816901F004010491816941F008018161F4
:101180008069104D00F008000490002220212846BC
:10119000FFF72FF96814CDE9000469460A48029464
:1011A000FFF732F8202000900120CDE90104022051
:1011B000039069462846FFF727F805B030BD0000C8
:1011C00000100240000801400010014010B586B038
:1011D00000241248009401940294039404940E494C
:1011E000059401600915C0E9011440F2BF21C0E96E
:1011F00003148461FFF783FC4FF48050009069462C
:101200000648FFF7C6FC049404A904480594FFF7B8
:1012100055FC06B010BD000000080040780000201A
:10122000FEE7704770477047FFF71EB930B58FB0C3
:1012300028216846FEF77DFF14210AA8FEF779FFF2
:10124000092000904FF4A0200024CDE901040120E2
:101250000225CDE906050490000408904FF4E01043
:1012600009906846FFF784FA0F20CDE90A05680265
:10127000CDE90C4002210AA80E94FFF78DF90FB0BA
:1012800030BD00000D48016841F001010160416876
:101290000B4A1140416001680A4A1140016001682F
:1012A00021F480210160416821F4FE0141604FF486
:1012B0001F0181600449C0030860704700100240AC
:1012C0000000FFF8FFFFF6FE08ED00E00148FFF721
:1012D000CCBC000078000020F0B50268164B174C1B
:1012E000174D4FF08047984205D0B84203D0A04236
:1012F00001D0A84203D122F070064A6832439842D6
:1013000005D0B84203D0A04201D0A84203D122F4B4
:101310004074CA6822434C6922F080022243026072
:101320008A68C2620A688262984201D109690163CF
:1013300001214161F0BD0000002C0140000400408B
:101340000008004010B5846842EA032224F47F4478
:101350000A432243826010BD826822F070020A4371
:1013600042F007018160704710B5036A046A24F0F7
:1013700001040462846924F0F00444EA021423F0B6
:101380000A020A438461026210BD10B5036A23F0A9
:10139000100303628369046A23F4704343EA023250
:1013A00024F0A00343EA01118261016210BD10B56F
:1013B000406A0021C185C184FFF723FD10BD01688B
:1013C000CA6822F49072CA6001684A6922F0010278
:1013D0004A61202180F83A10704710B590F83A1011
:1013E000222901D0022010BD8168B1F5805F11D0A3
:1013F0000169002901681FD0496801F07F03816AF3
:101400004A1C82620B70C18D491E0904090CC185FA
:1014100018D02BE00269816A002A0268526805D060
:10142000D2B20A80816A491C8162ECE7C2F30802E9
:101430000A80816A891CF7E74A68816A4B1C8362CB
:101440000A70E0E70168CA6822F02002CA600168F9
:10145000CA6822F48072CA6001684A6922F00102F7
:101460004A61202180F83A10FFF7E6FD002010BD08
:101470002DE9F041044600680169E26821F4405119
:10148000114301612169A06808436169084321682B
:10149000CA6841F20C639A430243CA6020684169FA
:1014A000A26921F44071114341611E4920686425FD
:1014B0003226884202D1FFF715F901E0FFF702F961
:1014C00000EBC00101EB001160686FF018078000AD
:1014D000B1FBF0F2B2FBF5F2B1FBF0F37A4303EBB0
:1014E0008202B1FBF0F306EB0212B2FBF5F2B3FBA2
:1014F000F5F302F0F00202EB0312B1FBF0F3B1FBE3
:10150000F0F0B0FBF5F0784303EB800006EB001041
:10151000B0FBF5F0216800F00F0010448860BDE8D2
:10152000F08100000038014090F83910212901D0E5
:10153000022070478168B1F5805F016A0BD04A1CB8
:101540000262026809785160C18C491E0904090CC5
:10155000C1840ED017E009880268C1F30801516008
:1015600001690029016A02D0491C0162ECE7891C6B
:10157000FBE70168CA6822F08002CA600068C1689F
:1015800041F04001C160002070472DE9F0419846CC
:1015900017460E460446069D1DE0681C1BD02DB163
:1015A000FEF72CFFA0EB0800A84214D92068C16800
:1015B00021F4D071C1602068416921F001014161CD
:1015C000202084F8390084F83A00002084F838009C
:1015D0000320BDE8F0812068006836EA000004D0EE
:1015E0000020B842D9D00020F3E70120F9E700003D
:1015F0000148FFF707BC0000B8000020FEE709071C
:10160000090E002804DB00F1E02080F80014704788
:1016100000F00F0000F1E02080F8141D704702E098
:1016200008C8121F08C1002AFAD17047704700206D
:1016300001E001C1121F002AFBD17047FEF71CFF19
:10164000FFF7F4FDFFF778FD2F482E4900240160D5
:101650004FF4E131C0E901140C21C460C0E9044138
:101660008461C461FFF756FC274828494C38016063
:101670000321416040F6FF718160FEF7C5FEFFF770
:10168000A5FD4FF496773B461C2221491E48FFF7E3
:10169000F3FC1D484038FFF76BFA1D49032210394F
:1016A0001948FFF79FFC1A4D1A4EDFF86C904FF463
:1016B0000058103D686801280DD0002220213046D6
:1016C000FEF797FE41464846FEF78EFE28B1A86811
:1016D00001280AD011E00122F0E70D493B4615220E
:1016E0001D310948FFF7C8FCFEE709493B461522B2
:1016F00033310548FFF7C0FCAC6003484C38FEF7B7
:10170000ACFED7E700440040B800002000300040A5
:1017100010000020000801400010014000000000FF
:101720000000000001020304060708090000000091
:101730000102030454170008000000206C000000A0
:101740001E160008C01700086C0000208C04000062
:101750002E1600080000000000000000010000003C
:101760000000000057454C43454F4D20544F205337
:10177000544D3332463130335242543620210D0A13
:101780000049574447207265736574206661696C2F
:10179000656420210D0A004F4E45207365636F6E0E
:1017A000642070617373656420210D0A00000000DD
:1017B00000A24A0401000000100000000000000028
:04000005080000ED02
:00000001FF
