:020000040800F2
:100000004005002001010008C31F0008691E000808
:10001000C11F0008CD08000881240008000000006E
:10002000000000000000000000000000C71F0008E2
:100030000709000800000000C51F0008C91F0008CC
:100040001B0100081B0100081B0100081B01000820
:100050001B0100081B0100081B0100081B01000810
:100060001B0100081B0100081B010008D108000843
:100070001B0100081B0100081B0100081B010008F0
:100080001B0100081B0100081B0100081B010008E0
:100090001B0100081B0100081B0100081B010008D0
:1000A0001B0100081B0100081B0100081B010008C0
:1000B0001B0100081B0100081B0100081B010008B0
:1000C0001B0100081B0100081B0100081B010008A0
:1000D0001B0100081B010008752400081B01000813
:1000E0001B0100081B0100081B010008DFF80CD0F1
:1000F00000F020FB00480047A92D00084005002023
:100100000648804706480047FEE7FEE7FEE7FEE7B1
:10011000FEE7FEE7FEE7FEE7FEE7FEE73920000820
:10012000ED000008202A04DB203A21FA02F0002129
:10013000704721FA02F3D040C2F1200291400843F7
:1001400019467047D2B201E000F8012B491EFBD2DC
:1001500070470022F6E710B513460A4604461946D2
:10016000FFF7F0FF204610BD2DE9FE4F81EA0304A2
:1001700004F0004421F0004100944FF0000B23F004
:10018000004350EA01045ED052EA03045BD0C3F39B
:100190000A54C1F30A552C44A4F2F3340194A0FB91
:1001A0000254C1F3130141F48011C3F3130343F468
:1001B000801301FB024400FB034E840A970A44EAC1
:1001C000815447EA8357A4FB076802958D0A05FB13
:1001D00007854FEA932C04FB0C542705029D4FEA38
:1001E000065847EA1637B5EB08056EEB070C870E85
:1001F000920E47EA811742EA8312A7FB0201B6EB8F
:100200000B0164EB00042B0D43EA0C335E1844EB46
:100210001C50DA465146E7FB0201C5F313044FEACE
:100220000B3343EA14534FEA0432019C43EA0603BA
:10023000A4F10C040294009CCDE900B400F0E6F8AF
:1002400003B0BDE8F08F00200146F9E770B521F05A
:10025000004303430CD0C1F30A550024D5EB040539
:1002600064EB0403D617AD1AB34102DB002001464C
:1002700070BD201841EB025170BD0EB540F2334104
:1002800002910021CDE900110A460B4600F0BEF8AC
:1002900003B000BD00F0004230F000400AD0C10DB4
:1002A00001F56071C0F3160042EA0151C20840072F
:1002B0001143704700200146704701F0004330B4FD
:1002C00021F0004150EA010206D00A0DA2F5607249
:1002D000C1F31301002A02DC30BC00207047440F38
:1002E00044EAC104C100E01830BC00EBC25000F089
:1002F00047B830B50B46014600202022012409E012
:1003000021FA02F59D4205D303FA02F5491B04FACE
:1003100002F52844151EA2F10102F1DC30BD2DE9E1
:10032000F05F0546002092469B4688460646814679
:1003300040241BE02846414647462246FFF7F2FE8E
:1003400053465A46C01A914110D3114618462246C8
:1003500000F002FA2D1A67EB01084F4622460120F1
:10036000002100F0F9F917EB00094E41201EA4F11D
:100370000104DFDC484631462A464346BDE8F09F8B
:100380000029A8BF7047401C490008BF20F00100A9
:10039000704710B4B0FA80FC00FA0CF050EA010487
:1003A00004BF10BC704749B1CCF1200421FA04F419
:1003B00011FA0CF118BF012121430843A3EB0C01F2
:1003C000CB1D4FEA00614FEA102042BF002010BC55
:1003D000704700EBC35010440029A4BF10BC704705
:1003E000401C490008BF20F0010010BC704710B548
:1003F000141E73F1000408DA401C41F10001921848
:100400005B411A4301D120F0010010BD2DE9F04DF0
:1004100092469B4611B1B1FA81F202E0B0FA80F245
:100420002032904600F098F904460F4640EA0A0050
:1004300041EA0B0153465A46084313D0114653EA8A
:10044000010019D0C8F140025046FFF76BFE054687
:100450000E4650465946424600F07EF9084305D004
:10046000012004E020463946BDE8F08D0020054318
:1004700046EAE0762C4337430A986305E40AA0EB8A
:1004800008000022FD0A44EA47540A3002D5002041
:100490000146E9E7010510196941DDE90845001940
:1004A0006941BDE8F04DA2E72DE9FE4F804681EAA3
:1004B0000300C00F0C46009021F0004123F00045DE
:1004C000B8EB0200A94105D24046214690461C46A1
:1004D0000B46024623F00040104347D0270DC7F3D8
:1004E0000A00C3F30A510290401A019040286BDAC7
:1004F000C3F3130040F4801B0098924620B1002300
:10050000D2EB030A63EB0B0B01985946C0F1400292
:10051000504600F021F906460D4650465946019ACC
:1005200000F029F910EB08006141002487EA11521C
:1005300084EAE7731A4340D0009A62B3019A012A11
:100540004FEA075215DC001B61EB02014FF000423D
:1005500002EA0752CDE90042001C41F58011324603
:100560002B46FFF753FF03B0BDE8F08F404621460E
:10057000F9E7001B61EB0201001C41F58013001834
:100580005B412018A2F5001747EB030140EAD57044
:10059000B6196D4111E06D084FEA360645EAC0759F
:1005A0004FEA0752001B61EB0201001C41F580116C
:1005B00049084FEA30000019514132462B4603B03A
:1005C000BDE8F04FFFF713BF009801224000002361
:1005D000D0EB020263EBE073009821464FEAE0742F
:1005E000B8EB000061EB0401E9E783F000435BE74F
:1005F00081F0004158E72DE9F04D81EA030404F051
:10060000004B21F0004514464FF0000A23F0004152
:1006100050EA050220D054EA01021DD0C5F30A5762
:100620000246C5F31303C1F31300C1F30A5640F4A5
:10063000801543F48013A7EB0608101BD64608F27A
:10064000FD3873EB050002D308F1010801E09218B0
:100650005B41B8F1000F03DA00200146BDE8F08DE0
:1006600000204FF48011064684460EE0171B73EB02
:10067000050705D3121B63EB050306434CEA010C87
:1006800049084FEA300092185B4150EA0107EDD16A
:1006900052EA030012D082EA040083EA050108430B
:1006A00005D0101BAB4106D20122002306E0002238
:1006B0004FF0004302E06FF0010253101AEB060006
:1006C0004CEB085110EB0A0041EB0B01BDE8F04D7B
:1006D000FFF78DBEC1F30A52C1F3130140F2FF339D
:1006E00041F480119A4202DA00200146704740F23C
:1006F00033439A42A2F2334202DC5242FFF712BD68
:1007000000F02AB830B5041E71F1000404DB4FF08C
:100710000044404264EB0101141E73F1000405DB48
:100720001C464FF00043524263EB0403994208BF5A
:10073000904230BD064C074D06E0E06840F00103F2
:1007400094E8070098471034AC42F6D3FFF7D2FC88
:10075000D42F0008F42F0008202A04DB203A00FAE6
:1007600002F1002070479140C2F1200320FA03F308
:10077000194390407047202A06DBCB17203A41FAF4
:1007800002F043EAE07306E041FA02F3D040C2F11E
:1007900020029140084319467047000070B5044696
:1007A00000688168C943C9071CD1816821F0010133
:1007B000816000F02BFD05460FE000BF00F026FD34
:1007C000401B022809D9A06A40F01000A062E06A2C
:1007D00040F00100E062012070BD20688068C043E5
:1007E000C007EBD0002070BD10B50146406A826A98
:1007F00012F0500F05D0006A026BBDE810400846A9
:100800001047816A41F40071816201688968C1F30F
:10081000424107290CD1017B51B9816A21F48071D1
:100820008162816AC90403D4816A41F00101816255
:1008300000F0EAF810BD10B5406A816A41F040014D
:100840008162C16A41F00401C16200F0DFF810BDAD
:1008500010B5406A00F0D9F810BD0000F8B50026C8
:100860000446009600688168C943C90728D081689A
:1008700041F001018160134813490068B0FBF1F0B9
:1008800000E0401E00900028FBD100F0BFFC0546B0
:1008900011E000BF00F0BAFC401B02280BD9A06A8F
:1008A00040F01000A062E06A40F00100E06284F8CD
:1008B00024600120F8BD20688068C043C007E9D1EA
:1008C0000020F8BD2000002040420F00FEE700009D
:1008D000014800F08FBA0000F800002030B590F811
:1008E00040500124AC40C56B6C6004686360436891
:1008F000102B036803D099600068C26030BD9A6015
:100900000068C16030BD704770470000F8B5002432
:10091000009490F824202546012A12D0012280F864
:1009200024204A681F23072A0DD20668776B521EBF
:1009300002EB820293409F430B6893401F4377630F
:1009400019E00220F8BD06680D2A0AD2376BD21FC3
:1009500002EB820293409F430B6893401F4337632F
:1009600009E0F76A0D3A02EB820293409F430B685D
:1009700093401F43F7620A68072306680A2A0AD3CE
:10098000F7680A3A02EB420293409F438B68934018
:100990001F43F76008E0376902EB420293409F4330
:1009A0008B6893401F4337610A68102A01D0112ACF
:1009B00020D1124B02689A4217D193681B0219D4B6
:1009C000936843F4000393600968102912D10C491D
:1009D0000C4A0968B1FBF2F101EB8101490000E02A
:1009E000491E00910029FBD104E0816A41F02001F9
:1009F0008162012480F824502046F8BD0024014083
:100A00002000002040420F007047704770470000F0
:100A10002DE9F0414FF0000704003D467ED0A06A6A
:100A2000002628B9E66284F82460204600F07EF8AB
:100A30002046FFF7B3FEA16AC90600D420B1A06A20
:100A400040F01000A06269E0A16A21F4885141F0F1
:100A50000201A1626268E169237B0A4347EA43011C
:100A60000A43A1684FF48077B94209D0012907D021
:100A70005FF0000194F814C0BCF1010F02D00AE04D
:100A80003946F7E7F3B1A36A43F02003A362E36AB0
:100A900043F00103E3622368D3F804C02CF4694CEB
:100AA0004CEA010CC3F804C021688B68DFF870C001
:100AB00003EA0C0313438B60A168B9420BD00129F0
:100AC00009D00CE0DFF85CC0A3690CEB43330B43A7
:100AD00043F40061DFE7218A0D05A5F58015216843
:100AE000CB6A23F470032B43CB62216889680E4BD9
:100AF0001940914208D1E662A16A21F0020141F059
:100B00000101A162BDE8F081A06A20F0020040F07E
:100B10001000A062E06A40F00100E0620120F1E70D
:100B2000FDF7E1FF00E0FFFFFE0E1FFF70B586B08E
:100B300000250646009501950295039500681A491F
:100B400088422ED11949886940F40070886188690B
:100B500000F400700490886940F00400886188699E
:100B6000694600F0040004901320009003200190D7
:100B70000F4800F04FFA104C0E48C4E900058020E1
:100B8000C4E9025080002061800060612020C4E937
:100B90000605204600F0D8F908B1FFF7B5FE34622B
:100BA000666206B070BD00000024014000100240E3
:100BB0000008014008000240F80000202DE9F0473D
:100BC000894604463B4900683B4F0E1D90468842CB
:100BD00001D0B84207D1306810F4702F03D001253E
:100BE0002846BDE8F08794F8240001280CD00120A5
:100BF00084F824002046FFF731FE05004FF0000086
:100C000004D084F82400EBE70220EAE7A16A40F66A
:100C10000162914341F48071A1622168B94218D107
:100C2000326812F4702F14D0A16A41F48011A162CD
:100C30003168490505D5A16A21F4005141F480517C
:100C4000A162A16AC9040AD5E16A21F00601E16244
:100C500006E0A26A22F48012A2624968E9E7E06233
:100C600084F82400216A15488862216A1448C86201
:100C7000216A1448086321686FF002000860206848
:100C8000816841F480718160216843464A464C3155
:100C9000206A00F087F920688168C1F34241072982
:100CA000816803D041F48011816099E741F4A0018B
:100CB000FAE700000024014000280140E90700088D
:100CC000510800083708000810B5044690F82400C1
:100CD000012807D0012084F824002046FFF75EFD9C
:100CE00010B10EE0022010BD2068816821F48071EF
:100CF0008160206A00F00EF8A16A30B141F0400135
:100D0000A162002184F8241010BD21F4885141F023
:100D10000101F5E710B590F821100022022905D055
:100D20000421816380F82020012010BD01680B6838
:100D300023F00E030B6001680B6823F001030B60C6
:100D400090F84030C46B012101FA03F3636080F82E
:100D5000211080F82020104610BD000010B590F83A
:100D600021100024022903D00421816301243DE0E5
:100D700001680A6822F00E020A6001680A6822F01F
:100D800001020A601A4A0168914201D1012121E061
:100D9000174A1432914201D110211BE0144A283223
:100DA000914201D1891515E0114A3C32914201D19D
:100DB00089140FE00E4A5032914202D14FF4803133
:100DC00008E00B4A6432914202D14FF4801101E0F5
:100DD0004FF08071064A083A5160012180F82110D5
:100DE000002180F82010416B01B18847204610BDDA
:100DF000080002402DE9F05FC16B0C6801680B68C8
:100E0000D0F840C0042202FA0CF2494DDFF824A1C8
:100E1000494E4A4FDFF828B1DFF828E122422CD0B2
:100E20005A072AD50A68920603D40A6822F00402F7
:100E30000A600168A94201D1042219E0514501D19B
:100E4000402215E0B14202D14FF4806210E0B94275
:100E500002D14FF480420BE0594502D14FF4802279
:100E600006E0714502D14FF4800201E04FF080624C
:100E70002F4908394A60C16A3BE04FF0020808FA7E
:100E80000CF818EA040F4FF000094FF0010235D0BA
:100E90005FEA837832D50B689B0605D40B6823F094
:100EA0000A030B6080F821200168A94201D10222C7
:100EB00019E0514501D1202215E0B14202D14FF491
:100EC000007210E0B94202D14FF400520BE05945D4
:100ED00002D14FF4003206E0714502D14FF4001206
:100EE00001E04FF00072124908394A6080F8209002
:100EF000816A00291AD0BDE8F05F0847082505FA85
:100F00000CF5254212D01B0710D50B6823F00E03F9
:100F10000B6090F84010C36B02FA01F159608263D4
:100F200080F8212080F82090016BE2E7BDE8F09F77
:100F3000080002401C000240300002404400024011
:100F4000580002406C00024030B528B308C813496D
:100F500014221944B1FBF2F18900C1631049816385
:100F6000022141771A6843F6F0718A43D0E90014F0
:100F70002143D0E902452C432143046921434469BC
:100F800021438469214311431960002141630122F7
:100F900042770177084630BD012030BDF8FFFDBF24
:100FA0000000024070B5044690F82000002501289A
:100FB0000CD0012084F8200094F821600020012E3C
:100FC00006D084F820000225284670BD022070BD9E
:100FD000022684F82160A0632068066826F00106D6
:100FE00006602046FFF77AFCE06A00282068016866
:100FF00002D041F00E0106E021F0040101602068FA
:10100000016841F00A0101602068016841F00101B6
:101010000160D9E72DE9F84FDFF8B891002409F114
:10102000040A0AF1040B23460F270BF1040EC9E052
:101030000125A5402A40AA427DD1674ED1F804C0BF
:10104000ACEB0608B44532D014DCBCF1030F3AD047
:1010500009DCBCF1000F2AD0BCF1010F1CD0BCF19F
:10106000020F31D11DE0BCF1110F17D0BCF1120FEE
:101070002AD119E0B8F5881F19D006DCB8F5803FF1
:1010800015D0B8F5801F1FD111E0B8F5001F0ED0A4
:10109000B8F5041F18D10AE0CB6815E0CB681B1D1A
:1010A00012E0CB6808330FE0CB680C330CE08B68A0
:1010B0002BB1012B4FF0080303D0456104E004235A
:1010C00002E0056100E00023FF2A01D8064601E0A6
:1010D00000F104064FEA840501D9A5F12005D6F8F0
:1010E000008007FA05FC28EA0C0803FA05F548EA2F
:1010F0000508C6F800804D68ED0062D5374DAE6931
:1011000046F00106AE61AD6924F0030605F0010565
:101110000095334D06EB050CDCF80850A607360F9A
:1011200007FA06F825EA0805DFF8B880404503D13C
:101130004FF0000817E044E0DFF8AC80404502D1F2
:101140004FF001080FE0DFF8A480404502D14FF0D6
:10115000020808E0DFF89880404502D14FF003080C
:1011600001E04FF0040808FA06F848EA0508CCF850
:1011700008804D68D9F80060ED034D4601D516434F
:1011800000E096432E604D68DAF80060AD035546E6
:1011900001D5164300E096432E604D68DBF80060F1
:1011A000ED025D4601D5164300E096432E604D6882
:1011B000DEF80060AD02754601D5164300E09643A7
:1011C0002E60641C0D682A46E5407FF431AFBDE80F
:1011D000F88F0000000401400000111000100240D0
:1011E0000000014000080140000C014000100140D7
:1011F00000140140C2680A4201D041617047016198
:1012000070470AB1016170470904FBE70148806833
:10121000704700002400002070B5040011D0216840
:101220004CF6CC400860216845F255500860D4E97E
:10123000000141602168A0688860FFF7E7FF05466C
:1012400009E0012070BD00BFFFF7E0FF401B302820
:1012500001D9032070BD2068C0680028F4D121683E
:101260004AF6AA200860002070BD00684AF6AA214C
:101270000160002070470000024881680278114434
:101280008160704724000020074810B5016841F0D4
:1012900010010160032000F075F8002000F006F84E
:1012A00000F024F8002010BD0020024070B50D4D64
:1012B00004464FF47A712878B1FBF0F00A490968C6
:1012C000B1FBF0F000F062FB48B9102C07D200220D
:1012D0002146501E00F036F800206C6070BD0120E1
:1012E00070BD000024000020200000200C4808B53C
:1012F000816941F001018161816901F00101009181
:10130000C16941F08051C161C06900F08050009016
:101310000448416821F0E06141F00071416008BD7E
:101320000010024000000140002809DB00F01F020D
:10133000012191404009800000F1E020C0F8001137
:1013400070470000F0B40E4B1B680C46C3F3022339
:10135000C3F10705042D00D90425191D072901D261
:10136000002300E0DB1E012606FA05F1491E21409C
:1013700099409E40761E16403143F0BC01F096B86D
:101380000CED00E0064900F0070208684FF6FF0385
:10139000184040EA0220034A1043086070470000EA
:1013A0000CED00E00000FA052DE9F8430546007851
:1013B000354CC00754D0E0690026C00008D4E0696D
:1013C00040F08050E061E069012600F0805000901C
:1013D0002E480168C90512D40168804641F4807125
:1013E0000160FFF713FF074605E000BFFFF70EFFA0
:1013F000C01B642823D8D8F80000C005F6D5206AA1
:1014000010F4407021D0A98801F4407181421CD0B1
:10141000206A1F49012220F440700A6000220A60FD
:101420002062C00711D0FFF7F1FE074641F288386D
:1014300008E000BFFFF7EAFEC11B414502D90320C7
:10144000BDE8F883206A8007F4D5206A696820F433
:101450004070084320621EB1E06920F08050E061D6
:101460002878800705D56068A96820F440400843C3
:1014700060602878C00605D56068E96820F48000BF
:10148000084360600020DBE700100240007000406D
:10149000400442422DE9F0470F46050061D0434E1B
:1014A000306800F00700B84209D2306820F0070029
:1014B00038433060306800F00700B84251D12868E6
:1014C0003B4C810712D5400703D5606840F4E060CB
:1014D00060602878000703D5606840F46050606061
:1014E0006068A96820F0F000084360602878C007B1
:1014F00028D06868012810D02168022810D08907F8
:1015000000292EDA616821F0030101436160FFF7D1
:101510007DFE804641F288390DE021688903EFE7BE
:101520008901EDE7FFF772FEA0EB0801494502D9FA
:101530000320BDE8F0876068696800F00C00B0EB3C
:10154000810FEFD1306800F00700B8420BD9306846
:1015500020F0070038433060306800F00700B842E0
:1015600001D00120E5E72878400705D56068E968E3
:1015700020F4E060084360602878000706D56068C2
:10158000296920F4605040EAC100606000F038F83A
:101590006168084AC1F30311515CC84006490860FC
:1015A00006480068FFF782FE0020C2E700200240E4
:1015B00000100240BC2F000820000020280000205E
:1015C0000448054900684968044AC1F30221515C96
:1015D000C84070472000002000100240CC2F0008B7
:1015E0000448054900684968044AC1F3C221515CB6
:1015F000C84070472000002000100240CC2F000897
:1016000012A185B00FC98DE80F0014A0144A00681C
:1016100004905168134801F00C03042B10D0082BE0
:101620000ED1C1F38343C9031DF803000AD55168E5
:1016300004AAC1F34041515C0A4A5043B0FBF1F0A7
:1016400005B0704708494843FAE700000203040563
:10165000060708090A0B0C0D0E0F101001020000FE
:101660000010024000127A0000093D002DE9F84FF9
:10167000040070D02078C04DC00749D06868C0F31E
:101680008100012807D06868C0F38100022809D1D1
:101690006868C00306D52868800339D560680028CB
:1016A000E7D035E06068B0F5803F0BD010B1B0F501
:1016B000A02F11D0286820F480302860286820F4FA
:1016C000802002E0286840F480302860606890B193
:1016D000FFF79CFD06460AE0286840F48020286059
:1016E000F0E700BFFFF792FD801B642873D82868DD
:1016F0008003F7D50CE0FFF789FD064605E000BF43
:10170000FFF784FD801B6428F0D828688003F7D495
:1017100020789A4E80074FF001094FF0000839D524
:10172000686810F00C0F07D06868C0F381000228C9
:1017300009D16868C00306D42868800714D52069D9
:10174000012808D110E02069B0B1C6F80090FFF779
:101750005DFD074605E00AE1FFF758FDC01B0228C2
:10176000C4D828688007F7D52868616920F0F80098
:1017700040EAC10028600DE0C6F80080FFF746FD92
:10178000074604E0FFF742FDC01B022823D8286863
:101790008007F7D4207800072CD57948A169D9B102
:1017A000C0F80090FFF732FD074604E0FFF72EFD7A
:1017B000C01B02280FD8686A8007F7D571484FF41C
:1017C000FA510068B0FBF1F0009000BF0098411E94
:1017D0000091FAD20EE080E0C0F80080FFF716FD1D
:1017E000074604E0FFF712FDC01B022875D8686A9F
:1017F0008007F7D42078400760D5E8690027C0004B
:1018000008D4E86940F08050E861E869012700F0F9
:10181000805000905C480168C90513D40168834674
:1018200041F480710160FFF7F1FC824606E000BFE1
:10183000FFF7ECFCA0EB0A0064284ED8DBF80000B0
:10184000C005F5D5E06801280AD008B1052813D0F5
:10185000286A20F001002862286A20F0040002E0D3
:10186000286A40F001002862E06841F2883B98B1A4
:10187000FFF7CCFC82460BE0286A40F004002862A7
:10188000EEE700BFFFF7C2FCA0EB0A0159455AD8AA
:10189000286A8007F6D50CE0FFF7B8FC824605E021
:1018A000FFF7B4FCA0EB0A0159454CD8286A800721
:1018B000F6D41FB1E86920F08050E861E06988B390
:1018C0006968C1F38101022944D00228C6F860800A
:1018D00004D0FFF79BFC044638E034E0FFF796FCA9
:1018E000074604E0FFF792FCC01B02282BD82868AB
:1018F0008001F7D4206AB0F5803F05D16868A168FF
:1019000020F4003008436860D4E90801084369689E
:1019100021F4741108436860C6F86090FFF776FC04
:10192000044606E025E000BFFFF770FC001B02281C
:1019300009D828688001F7D51BE000BFFFF766FCD7
:10194000001B022802D90320BDE8F88F2868800117
:10195000F4D40EE00128F7D06868226A00F48031E0
:10196000914204D1616A00F47010884201D00120D4
:10197000EAE70020E8E700000010024000004242D1
:1019800080044242200000200070004010B5401E3C
:10199000B0F1807F01D3012010BD4FF0E0246061E1
:1019A0000F21601700F082FD0020A0610720206158
:1019B000002010BD70B590F83C20012A19D00124F8
:1019C00000F83C4F0222427050F83C3C5A689D6837
:1019D00022F070060A684968324325F080052943E1
:1019E0005A6050F83C2C9160447000210170084608
:1019F00070BD022070BD000000B585B000210091CF
:101A000001910291039100680B49884211D10B4862
:101A1000816941F0040181618069694600F0040038
:101A20000490402000900220019003900448FFF7AA
:101A3000F1FA05B000BD00000004004000100240B3
:101A40000008014070B5044690F83C000D4601289E
:101A50000DD0012684F83C60022084F83D0042B19C
:101A6000042A18D0082A2AD00C2A4DD139E00220A5
:101A700070BD206800F03AFB2068816941F00801E0
:101A800081612068816921F0040181612068816998
:101A90002A69114311E0206800F050FB2068816939
:101AA00041F4006181612068816921F48061816174
:101AB000206881692A6941EA0221816124E0206865
:101AC00000F068FB2068C16941F00801C16120682D
:101AD000C16921F00401C1612068C1692A6911430B
:101AE00011E0206800F082FB2068C16941F40061C8
:101AF000C1612068C16921F48061C1612068C16948
:101B00002A6941EA0221C16184F83D60002084F81D
:101B10003C0070BD10B5040003D094F83D0010B136
:101B200007E0012010BD002084F83C00204600F0B2
:101B30000DF8022084F83D00211D206800F0A0FA75
:101B4000012084F83D00002010BD000008B50068A9
:101B50000649884208D10648C16941F00201C161C5
:101B6000C06900F00200009008BD000000040040C1
:101B7000001002407047000070B50268044610680B
:101B8000D168536910F00F0F50D003F0010501F434
:101B9000907635435DD0C20705D0CA0503D5E26B08
:101BA00042F00102E263420705D5DA0703D0E26B97
:101BB00042F00202E263820705D5DA0703D0E26B46
:101BC00042F00402E263020705D5DA0703D0E26BB4
:101BD00042F00802E263E26B002A33D0800604D5AB
:101BE000880602D5204600F039FB20684069E16B89
:101BF000C0F38010090700D428B3204600F020FB72
:101C00002068416949061AD5416921F040014161C6
:101C1000606BA0B11B494163606BFFF79FF8002820
:101C200010D0606B416BBDE870400847830610D54B
:101C30008B060ED52046BDE8704000F00FBB204655
:101C4000FFF798FF70BD2046FFF794FF0020E06388
:101C500070BD030606D50B0604D52046BDE87040CE
:101C600000F0A4BB4006F3D54806F1D5D168204664
:101C700021F04001D160202184F8391000F0F3F800
:101C800070BD00003122000870B5040004D094F843
:101C90003900002510B106E0012070BD84F83850ED
:101CA000204600F023F8242084F839002068C16819
:101CB00021F40051C160204600F01CFB206801693E
:101CC00021F4904101612068416921F02A014161BC
:101CD0002068C16841F40051C160E563202084F8A8
:101CE000390084F83A00002070BD000000B585B0CE
:101CF00000210091019102910391006813498842EB
:101D000021D11348C16941F40031C161C16901F4B5
:101D100000310491816941F0040181618069694663
:101D200000F0040004900C20009002200190039029
:101D30000848FFF76FF9002211462620FFF702FB43
:101D40002620FFF7F1FA05B000BD00000044004076
:101D5000001002400008014090F83A30202B22D1B8
:101D6000F9B1F2B190F83830012B1CD08162828534
:101D7000C2850021C163222280F83A2080F8381001
:101D80000168CA6842F48072CA6001684A6942F018
:101D900001024A610068C16841F02001C160002071
:101DA0007047012070470220704770472DE9F843C3
:101DB000044690F839001F4616460D46202850D19B
:101DC000A5B19EB194F8380001284AD0012084F8CA
:101DD00038004FF00008C4F83C80212084F8390016
:101DE000FFF714FAA6848146E68426E00120BDE8C8
:101DF000F883E08C401EE084A0684B46B0F5805F1D
:101E00004FF000024FF080012046009703D000F011
:101E1000FEFAE8B90DE000F0FAFAC8B9288821689E
:101E2000C0F308004860206908B16D1C05E0AD1CD6
:101E300003E0216815F8010B4860E08C0028D8D138
:101E40004B46002240212046009700F0E0FA08B1FE
:101E50000320CCE7202084F8390084F83880002063
:101E6000C5E70220C3E77047FEE70000FEB5002487
:101E7000154800940194134902940160891581600A
:101E800004730475032505614FF460214460C1614A
:101E9000FEF7BEFD0126CDE9004669460A480294D8
:101EA000FEF734FD0220CDE9006069460648FEF7E2
:101EB0002DFD0420CDE9000569460348FEF726FD07
:101EC000FEBD0000002401403000002030B585B088
:101ED000002420480094019402940394816941F005
:101EE00010018161816901F010010491816941F063
:101EF00020018161816901F020010491816941F033
:101F000004018161816901F004010491816941F05A
:101F1000080181618069104D00F0080004900022E2
:101F200020212846FFF76DF96814CDE900046946C1
:101F30000A480294FFF76EF8202000900120CDE9B6
:101F400001040220039069462846FFF763F805B0B4
:101F500030BD0000001002400008014000100140A8
:101F600010B58AB0002407941C2168460894FEF737
:101F7000F0F81248104901600915C0E9011440F257
:101F8000BF21C0E903148461FFF7C4FD079407A9CA
:101F90000A480894FFF70EFD6020CDE90004029482
:101FA0000022694605480494FFF74CFD0348FFF7FB
:101FB00023FD0AB010BD0000000400406C000020AA
:101FC000FEE7704770477047FFF756B930B593B0DA
:101FD00028216846FEF7BDF814210AA8FEF7B9F8D3
:101FE00000240F94092000901094119412944FF43F
:101FF000A020CDE9010401200225CDE906050490C9
:10200000000408904FF4E01009906846FFF72EFB9B
:102010000F20CDE90A056802CDE90C4002210AA88B
:102020000E94FFF737FAA80311900F950FA8FFF74A
:10203000BBF913B030BD00000D48016841F001014B
:10204000016041680B4A1140416001680A4A114031
:102050000160016821F480210160416821F4FE01E2
:1020600041604FF41F0181600449C003086070475C
:10207000001002400000FFF8FFFFF6FE08ED00E050
:10208000F0B50268164B174C174D4FF08047984239
:1020900005D0B84203D0A04201D0A84203D122F01B
:1020A00070064A683243984205D0B84203D0A04235
:1020B00001D0A84203D122F44074CA6822434C697B
:1020C00022F08002224302608A68C2620A68826249
:1020D000984201D10969016301214161F0BD00000D
:1020E000002C0140000400400008004030B5026AA6
:1020F00022F001020262026A4368846924F07305D7
:102100000C682C4322F002058A682A430A4DA84233
:102110000BD122F00805CA6823F440732A434D69A5
:1021200022F004021D438B692B434360846149689C
:102130004163026230BD0000002C014030B5026AEC
:1021400022F010020262026A436884690D6824F476
:10215000E64444EA05248D6822F0200242EA051292
:102160000B4DA8420ED1CD6822F0800242EA051242
:102170004D6923F4406343EA85038D6922F04002F0
:1021800043EA85034360846149688163026230BD2C
:10219000002C014030B5026A22F480720262036AA8
:1021A0004268C46923F4007324F073050C682C435F
:1021B0008D6843EA05230C4DA8420ED1CD6823F467
:1021C000006343EA05234D6922F4405242EA0512B6
:1021D0008D6923F4806342EA05124260C461496854
:1021E000C163036230BD0000002C014030B5026ABB
:1021F00022F480520262046A4268C3690D6823F4C3
:10220000E64343EA05238D6824F4005444EA053488
:10221000064DA84204D14D6922F4804242EA85125B
:102220004260C36149680164046230BD002C014012
:1022300010B5406A0021C185C184FFF79BFC10BD29
:102240000168CA6822F49072CA6001684A6922F083
:1022500001024A61202180F83A10704710B590F8C9
:102260003A10222901D0022010BD8168B1F5805FAB
:1022700011D00169002901681FD0496801F07F036E
:10228000816A4A1C82620B70C18D491E0904090CC7
:10229000C18518D02BE00269816A002A0268526861
:1022A00005D0D2B20A80816A491C8162ECE7C2F390
:1022B00008020A80816A891CF7E74A68816A4B1C18
:1022C00083620A70E0E70168CA6822F02002CA60EF
:1022D0000168CA6822F48072CA6001684A6922F003
:1022E00001024A61202180F83A10FFF75EFD0020CC
:1022F00010BD00002DE9F041044600680169E26864
:1023000021F44051114301612169A06808436169CA
:1023100008432168CA6841F20C639A430243CA60C9
:1023200020684169A26921F44071114341611E494D
:10233000206864253226884202D1FFF751F901E076
:10234000FFF73EF900EBC00101EB001160686FF090
:1023500018078000B1FBF0F2B2FBF5F2B1FBF0F32D
:102360007A4303EB8202B1FBF0F306EB0212B2FBFD
:10237000F5F2B3FBF5F302F0F00202EB0312B1FB4E
:10238000F0F3B1FBF0F0B0FBF5F0784303EB800025
:1023900006EB0010B0FBF5F0216800F00F001044D0
:1023A0008860BDE8F08100000038014090F83910E5
:1023B000212901D0022070478168B1F5805F016A50
:1023C0000BD04A1C0262026809785160C18C491E18
:1023D0000904090CC1840ED017E009880268C1F312
:1023E0000801516001690029016A02D0491C01629B
:1023F000ECE7891CFBE70168CA6822F08002CA602A
:102400000068C16841F04001C160002070472DE9BB
:10241000F041984617460E460446069D1DE0681C8E
:102420001BD02DB1FEF7F2FEA0EB0800A84214D994
:102430002068C16821F4D071C1602068416921F031
:1024400001014161202084F8390084F83A0000201D
:1024500084F838000320BDE8F0812068006836EA7F
:10246000000004D00020B842D9D00020F3E70120BA
:10247000F9E700000148FFF77FBB0000AC00002037
:10248000FEE700000FB4084B10B504A902AA039898
:1024900000F0EEF8044602A9002000F080FC20467F
:1024A00010BC5DF814FB00009F2D00080907090E01
:1024B000002804DB00F1E02080F80014704700F0F1
:1024C0000F0000F1E02080F8141D704702E008C8FA
:1024D000121F08C1002AFAD170477047002001E09E
:1024E00001C1121F002AFBD1704700002DE9FF5FD8
:1024F00082B00021DDE90430020DDDF840B0034375
:1025000018D044F61050A2F2FF324243151411982D
:1025100001281FD0A5EB0B00401C5FEA000A4FF01A
:1025200000064E4FDFF83891B046504615D5CAF137
:10253000000413E0119801244AA3012801D16FEA95
:102540000B010298119AC0E90031C0E9024206B0BD
:10255000BDE8F09FCBF10000DFE704460021404AD0
:10256000491842EB0450CDE9001012E0E00707D013
:1025700032463B4640464946FDF7F6FD80468946D1
:1025800032463B4610461946FDF7EEFD06460F461D
:102590006410002CEAD1DDE90401DDE90023BAF181
:1025A000000F06DAFDF7E0FD42464B46FDF7DCFD85
:1025B00005E0FEF720F842464B46FEF71CF80446BD
:1025C0000E460022284BFEF79DF803D84FF0FF304F
:1025D000014607E00022254B20463146FDF764FF07
:1025E000FEF778F8102409E0002C0ADB0A22002309
:1025F000FDF795FE039B30321A55641E50EA010226
:10260000F2D1641C039AC4F111031444119A012AF3
:1026100003D0012208430DD10AE0084304D0002072
:102620004FF0110B119072E7A3EB0B056D1E0DE03F
:102630005B4504DD4FF0000205F1010504E003DA1B
:102640004FF00002A5F10105002AECD00298119983
:10265000C0E90231C0E9004579E7000000001440FC
:102660000000F03F300000000000F0430000E03FB9
:102670002DE9FF4F95B09B468946064600250FE29F
:10268000252877D100242746F84A0121059400E047
:10269000044316F8013F203B01FA03F01042F7D142
:1026A00030782A2811D06FF02F033078A0F1300253
:1026B000092A16D8059A44F0020402EB820203EBC1
:1026C00042021044761C0590EFE759F8042B05925E
:1026D000002A03DA504244F40054059044F0020406
:1026E000761C30782E2816D116F8010F44F0040419
:1026F0002A280DD06FF02F023078A0F13003092B7B
:1027000009D807EB870302EB4303C718761CF3E7EE
:1027100059F8047B761C30786C280FD006DC4C28E6
:1027200017D068280DD06A2814D104E0742810D07E
:102730007A280FD10DE044F400140AE044F4801428
:1027400001E044F440147278824202D104F580140E
:10275000761C761C307866280BD013DC582877D08E
:1027600009DC002875D04528F6D04628F4D0472843
:102770001AD19DE118E0632835D0642879D0652806
:1027800012D195E1702873D008DC6728F1D0692850
:102790006FD06E280DD06F2806D1B5E073282CD0ED
:1027A000752875D0782874D05A46179990476D1CB3
:1027B00075E1C4F30250022809D003280DD0D9F8DE
:1027C000001004280DD00D6009F1040967E1D9F863
:1027D0000010EA17C1E90052F6E7D9F800100D80A1
:1027E000F2E70D70F0E719F8041B8DF800100020D7
:1027F0008DF80100EA46012003E059F804AB4FF0E0
:10280000FF3061074FF0000102D40DE008F1010133
:102810008846B9420FDA8045F8DB1AF8081000291B
:10282000F4D108E008F1010188468142FADB1AF888
:1028300008100029F6D105985B46A0EB0807214651
:102840003846179A00F094FA284400EB080507E090
:102850004DE029E10DE01AF8010B5A46179990470F
:10286000B8F10108F7D25B4621463846179A13E1C2
:1028700042E00A220092C4F302524FF0000A022AF8
:1028800008D059F804CB032A4FEAEC710AD00DE0C6
:1028900029E02AE009F1070121F00702F2E802C16C
:1028A000914609E00FFA8CFC4FEAEC71042A03D13F
:1028B0004FFA8CFC4FEAEC71002907DA0A46002136
:1028C000DCF1000C61EB02012D2202E0220504D5AF
:1028D0002B228DF80420012203E0E20701D0202200
:1028E000F7E7904659E00A2102E010220DE010219E
:1028F0004FF0000A00910BE010224FF0000A44F064
:1029000004040827009203E008224FF0000A009216
:10291000C4F30252022A05D059F804CB0021032A3D
:1029200008D009E009F1070121F00702F2E802C12D
:10293000914605E01FFA8CFC042A01D10CF0FF0C33
:102940004FF00008220728D5702806D0009B83F09E
:10295000100353EA0A0305D00EE040228DF804204C
:10296000012208E05CEA010206D030228DF8042042
:102970008DF8050002229046009B83F0080353EA7D
:102980000A030AD15CEA010201D1620705D53022AF
:102990008DF804204FF001087F1E582804D034A081
:1029A00003900EA802900DE036A0F9E7534660466A
:1029B000009AFDF7B4FC84460398825C0298401E9E
:1029C000029002705CEA0100F0D1029806A9081A90
:1029D00000F1200A600702D524F4803400E00127CA
:1029E000574502DDA7EB0A0000E0002000EB0A01DA
:1029F000009005984144401A0590E00306D45B46D8
:102A00002146179A059800F0B3F90544002706E01F
:102A100001A85A46C05D179990476D1C7F1C474519
:102A2000F6DBE0030CD55B462146179A059800F0CB
:102A30009FF9054404E030205A46179990476D1CD1
:102A40000099481E00900029F5DC08E002980299E0
:102A50005A460078491C0291179990476D1CBAF1AB
:102A60000001AAF1010AF1DC65E10000092801007A
:102A700030313233343536373839616263646566F4
:102A800000000000303132333435363738394142B6
:102A9000434445460000000000F058F90544761C08
:102AA000307800287FF4ECAD19B02846BDE8F08FEF
:102AB000620700D4062709F1070222F0070CFCE8A0
:102AC0000223E14603F000485FEA080C02D00FF24F
:102AD000702C0DE05FEA045C02D50FF2682C07E071
:102AE0005FEAC47C02D00FF2602C01E0AFF2700C00
:102AF0004FF0FF3823F00043CDF850C065280CD0CC
:102B000006DC452809D046281DD047283DD13DE0A8
:102B1000662818D067287ED138E00021112F01DB0C
:102B2000112000E0781CCDE9000106A90EA8FFF7EE
:102B3000DDFCDDE90F010E9A03910021009207F1FF
:102B4000010A04914DE04FF000400097CDE90110DB
:102B500006A90EA8FFF7CAFCDDE90F0203920E9B3F
:102B600011990022DDF80CA00093049211B9791C90
:102B700000EB010AB7EB0A0004D4C0F1FF3007F103
:102B8000010A0490AAEB0700019044E0012F00DA4B
:102B900001270021112F01DD112000E03846CDE989
:102BA000000106A90EA8FFF7A1FCDDE90F010E9AAE
:102BB0000391002104910092BA4621070CD4039995
:102BC000514500DA8A46BAF1010F05DD009AAAF1F3
:102BD0000101515C302908D0B84202DA10F1040F2B
:102BE00006DA0121CDE9011015E0AAF10101E9E7BA
:102BF000002805DC049901440491AAEB000102E0DD
:102C0000411C514500DD8A460499401A401C019040
:102C10004FF000400290200704D40198504501DB9A
:102C2000CDF8048000208DF84F0002980DF14F0779
:102C3000B0F1004F25D02B200E9002984FF00208E3
:102C400000280CDA404202902D200E9007E00A2165
:102C50000298FDF74EFB3031029007F8011DB8F1E4
:102C60000001A8F10108F2DC02980028EFD1791EDA
:102C70000E980870307800F0200040F0450007F80A
:102C8000020D12A8C01B00F107081498007800B1CB
:102C9000012000EB0A01019801EBE0710598414425
:102CA000401A401E0590E00306D45B462146179A61
:102CB000059800F05DF805441498007818B15A465C
:102CC000179990476D1CE00324D55B462146179A5F
:102CD000059800F04DF805441CE00498002807DB37
:102CE000DDE90301884203DD0098405C179901E0AB
:102CF000179930205A469047049805F10105401C69
:102D000004900198401E019004D12E205A46179934
:102D100090476D1CBAF10001AAF1010ADDDC05E063
:102D200017F8010B5A46179990476D1CB8F100012E
:102D3000A8F10108F4DC5B462146179A0598ABE63A
:102D40002D0000002B000000200000002DE9F041C4
:102D5000044600251E461746880404D405E039467B
:102D60002020B0476D1C641EF9D52846BDE8F081CF
:102D70002DE9F041044600251E469046C80301D5C2
:102D8000302700E02027880404D505E04146384676
:102D9000B0476D1C641EF9D52846BDE8F0810A686D
:102DA000531C0B601070704786B0FEF76DFAFFF78A
:102DB0000DF9FFF78BF86D48416941F00101416160
:102DC0004069002200F00100009011460B20FEF740
:102DD000B9FA0B20FEF7A8FA664865490C22016093
:102DE0004FF4E131416000218160C160C0E904120B
:102DF0008161C161FEF748FF5E485F494C38016060
:102E00000321416040F6FF718160FEF705FAFFF78C
:102E10002DF8FFF7A5F84FF4967423461C22574966
:102E20005448FEF7C3FF55490322C91E5148FEF717
:102E300093FFA2464F4CDFF8488140344FF0663B89
:102E40006FF00B094B49C8224031A1F1BC00FDF7DE
:102E5000B5FE20214B48FEF7CDF92068FDF70DFAAD
:102E60005F465A464346FDF77FF94A46FDF7EEF9BD
:102E7000FDF723FA06466068FDF7FFF93A46434638
:102E8000FDF772F94A46FDF7E1F9FDF716FA054636
:102E9000A068FDF7F2F93A464346FDF765F94A4660
:102EA000FDF7D4F9FDF709FA07463046FDF7F2F9C8
:102EB00002460B4634A16846FFF7E4FA2846FDF7C0
:102EC000E9F902460B4630A102A8FFF7DBFA3846C3
:102ED000FDF7E0F902460B462BA104A8FFF7D2FA52
:102EE0005546534609222AA12248FEF75FFF2B468A
:102EF000052269461F48FEF759FF2B46042227A1E9
:102F00001C48FEF753FF2B46092225A11948FEF75E
:102F10004DFF2B46052202A91648FEF747FF2B4618
:102F200004221EA11348FEF741FF2B4609221FA1D0
:102F30001048FEF73BFF2B46052204A90D48FEF77B
:102F400035FF2B46042215A10A48FEF72FFF2B461A
:102F5000032219A10748FEF729FF06487C38FDF730
:102F6000B3FE04484C38FEF780F96BE700100240CE
:102F700000440040AC00002000300040030000206E
:102F800066660A400008014025312E3366000000C5
:102F90004144432D494E303A00000000560D0A00CE
:102FA0004144432D494E323A000000004144432D34
:102FB000494E343A000000000D0A000000000000F5
:102FC00000000000010203040607080900000000D9
:102FD00001020304F42F000800000020300000006C
:102FE000CC24000824300008300000201005000028
:102FF000DC24000800000057454C43454F4D205449
:103000004F2053544D3332463130335242543620E0
:10301000210D0A0000A24A04010000001000000077
:0430200000000000AC
:04000005080000ED02
:00000001FF
